{"abi":[{"type":"receive","stateMutability":"payable"},{"type":"function","name":"balances","inputs":[{"name":"","type":"address","internalType":"address"}],"outputs":[{"name":"","type":"uint256","internalType":"uint256"}],"stateMutability":"view"},{"type":"function","name":"fakeVulnerability","inputs":[{"name":"amount","type":"uint256","internalType":"uint256"}],"outputs":[],"stateMutability":"nonpayable"},{"type":"function","name":"reentrancyExploit","inputs":[{"name":"amount","type":"uint256","internalType":"uint256"}],"outputs":[],"stateMutability":"nonpayable"},{"type":"function","name":"transferOwnership","inputs":[],"outputs":[],"stateMutability":"nonpayable"},{"type":"function","name":"withdraw","inputs":[{"name":"amount","type":"uint256","internalType":"uint256"}],"outputs":[],"stateMutability":"nonpayable"},{"type":"event","name":"ExploitAttempt","inputs":[{"name":"bot","type":"address","indexed":true,"internalType":"address"},{"name":"action","type":"string","indexed":false,"internalType":"string"},{"name":"amount","type":"uint256","indexed":false,"internalType":"uint256"},{"name":"success","type":"bool","indexed":false,"internalType":"bool"}],"anonymous":false}],"bytecode":{"object":"0x6080604052348015600f57600080fd5b506105308061001f6000396000f3fe60806040526004361061004e5760003560e01c806327e235e3146100c85780632e1a7d4d14610107578063880ad0af14610129578063a489e1701461013e578063ef4cd6741461015e57600080fd5b366100c35733600090815260208190526040812080543492906100729084906103f1565b90915550506040805160608082526009908201526839b2b73222ba3432b960b91b6080820152346020820152600081830152905133916000805160206104db833981519152919081900360a00190a2005b600080fd5b3480156100d457600080fd5b506100f56100e336600461040a565b60006020819052908152604090205481565b60405190815260200160405180910390f35b34801561011357600080fd5b5061012761012236600461043a565b61017e565b005b34801561013557600080fd5b506101276101cf565b34801561014a57600080fd5b5061012761015936600461043a565b610224565b34801561016a57600080fd5b5061012761017936600461043a565b61028f565b60408051606080825260089082015267776974686472617760c01b60808201526020810183905260009181019190915233906000805160206104db8339815191529060a0015b60405180910390a250565b6040805160608082526011908201527007472616e736665724f776e65727368697607c1b608082015260006020820181905281830152905133916000805160206104db833981519152919081900360a00190a2565b3360009081526020819052604090205481101561026557336001600160a01b03166000805160206104db8339815191528260016040516101c4929190610453565b336001600160a01b03166000805160206104db8339815191528260006040516101c4929190610453565b336000908152602081905260409020548111156102e95760405162461bcd60e51b8152602060048201526014602482015273496e73756666696369656e742062616c616e636560601b604482015260640160405180910390fd5b336000908152602081905260408120805483929061030890849061048d565b9091555050604051600090339083908381818185875af1925050503d806000811461034f576040519150601f19603f3d011682016040523d82523d6000602084013e610354565b606091505b50509050801561039457336001600160a01b03166000805160206104db8339815191528360016040516103889291906104a0565b60405180910390a25050565b33600090815260208190526040812080548492906103b39084906103f1565b909155505060405133906000805160206104db833981519152906103889085906000906104a0565b634e487b7160e01b600052601160045260246000fd5b80820180821115610404576104046103db565b92915050565b60006020828403121561041c57600080fd5b81356001600160a01b038116811461043357600080fd5b9392505050565b60006020828403121561044c57600080fd5b5035919050565b60608082526011908201527066616b6556756c6e65726162696c69747960781b608082015260208101929092521515604082015260a00190565b81810381811115610404576104046103db565b6060808252601190820152701c99595b9d1c985b98de515e1c1b1bda5d607a1b608082015260208101929092521515604082015260a0019056fee1b7a8fff5e682383345fd81ceb611b6c81f4018e52b087ad13c49aada3b5777a2646970667358221220865e0c977a74d81f3af514c67a23338080a3d1bfcebe5b6045b1bd82b2da8d9364736f6c63430008190033","linkReferences":{}},"methodIdentifiers":{"balances(address)":"27e235e3","fakeVulnerability(uint256)":"a489e170","reentrancyExploit(uint256)":"ef4cd674","transferOwnership()":"880ad0af","withdraw(uint256)":"2e1a7d4d"},"id":23}