{"abi":[{"type":"function","name":"transferOwnership","inputs":[],"outputs":[],"stateMutability":"nonpayable"},{"type":"function","name":"withdraw","inputs":[{"name":"amount","type":"uint256","internalType":"uint256"}],"outputs":[],"stateMutability":"nonpayable"},{"type":"event","name":"ExploitAttempt","inputs":[{"name":"bot","type":"address","indexed":true,"internalType":"address"},{"name":"action","type":"string","indexed":false,"internalType":"string"},{"name":"amount","type":"uint256","indexed":false,"internalType":"uint256"},{"name":"success","type":"bool","indexed":false,"internalType":"bool"}],"anonymous":false}],"bytecode":{"object":"0x6080604052348015600f57600080fd5b5061016d8061001f6000396000f3fe608060405234801561001057600080fd5b50600436106100365760003560e01c80632e1a7d4d1461003b578063880ad0af14610050575b600080fd5b61004e61004936600461011e565b610058565b005b61004e6100b7565b60408051606080825260089082015267776974686472617760c01b608082015260208101839052600081830152905133917fe1b7a8fff5e682383345fd81ceb611b6c81f4018e52b087ad13c49aada3b5777919081900360a00190a250565b6040805160608082526011908201527007472616e736665724f776e65727368697607c1b608082015260006020820181905281830152905133917fe1b7a8fff5e682383345fd81ceb611b6c81f4018e52b087ad13c49aada3b5777919081900360a00190a2565b60006020828403121561013057600080fd5b503591905056fea26469706673582212201d97e7f99aa728788bba3fe0fb893d06f311861351fd7a9fa0575ace430658b064736f6c63430008190033","linkReferences":{}},"methodIdentifiers":{"transferOwnership()":"880ad0af","withdraw(uint256)":"2e1a7d4d"},"id":23}