{"abi":[{"type":"constructor","inputs":[],"stateMutability":"nonpayable"},{"type":"receive","stateMutability":"payable"},{"type":"function","name":"balances","inputs":[{"name":"","type":"address","internalType":"address"}],"outputs":[{"name":"","type":"uint256","internalType":"uint256"}],"stateMutability":"view"},{"type":"function","name":"calculateFees","inputs":[{"name":"amount","type":"uint256","internalType":"uint256"}],"outputs":[{"name":"","type":"uint256","internalType":"uint256"}],"stateMutability":"view"},{"type":"function","name":"claimRewards","inputs":[{"name":"amount","type":"uint256","internalType":"uint256"}],"outputs":[],"stateMutability":"nonpayable"},{"type":"function","name":"epochDuration","inputs":[],"outputs":[{"name":"","type":"uint256","internalType":"uint256"}],"stateMutability":"view"},{"type":"function","name":"getBalance","inputs":[{"name":"account","type":"address","internalType":"address"}],"outputs":[{"name":"","type":"uint256","internalType":"uint256"}],"stateMutability":"view"},{"type":"function","name":"getLiquidityPool","inputs":[],"outputs":[{"name":"","type":"uint256","internalType":"uint256"}],"stateMutability":"view"},{"type":"function","name":"isPaused","inputs":[],"outputs":[{"name":"","type":"bool","internalType":"bool"}],"stateMutability":"view"},{"type":"function","name":"maxStakeAmount","inputs":[],"outputs":[{"name":"","type":"uint256","internalType":"uint256"}],"stateMutability":"view"},{"type":"function","name":"owner","inputs":[],"outputs":[{"name":"","type":"address","internalType":"address"}],"stateMutability":"view"},{"type":"function","name":"poolLiquidity","inputs":[],"outputs":[{"name":"","type":"uint256","internalType":"uint256"}],"stateMutability":"view"},{"type":"function","name":"poolStartTime","inputs":[],"outputs":[{"name":"","type":"uint256","internalType":"uint256"}],"stateMutability":"view"},{"type":"function","name":"renounceOwnership","inputs":[],"outputs":[],"stateMutability":"nonpayable"},{"type":"function","name":"totalSupply","inputs":[],"outputs":[{"name":"","type":"uint256","internalType":"uint256"}],"stateMutability":"view"},{"type":"function","name":"tradingEndBlock","inputs":[],"outputs":[{"name":"","type":"uint256","internalType":"uint256"}],"stateMutability":"view"},{"type":"function","name":"tradingStartBlock","inputs":[],"outputs":[{"name":"","type":"uint256","internalType":"uint256"}],"stateMutability":"view"},{"type":"function","name":"transferOwnership","inputs":[{"name":"newOwner","type":"address","internalType":"address"}],"outputs":[],"stateMutability":"nonpayable"},{"type":"function","name":"withdrawDuringWindow","inputs":[{"name":"amount","type":"uint256","internalType":"uint256"}],"outputs":[],"stateMutability":"nonpayable"},{"type":"function","name":"withdrawFunds","inputs":[{"name":"amount","type":"uint256","internalType":"uint256"}],"outputs":[],"stateMutability":"nonpayable"},{"type":"event","name":"Deposit","inputs":[{"name":"user","type":"address","indexed":true,"internalType":"address"},{"name":"amount","type":"uint256","indexed":false,"internalType":"uint256"}],"anonymous":false},{"type":"event","name":"OwnershipTransferred","inputs":[{"name":"previousOwner","type":"address","indexed":true,"internalType":"address"},{"name":"newOwner","type":"address","indexed":true,"internalType":"address"}],"anonymous":false},{"type":"event","name":"PoolUpdate","inputs":[{"name":"newLiquidity","type":"uint256","indexed":false,"internalType":"uint256"}],"anonymous":false},{"type":"event","name":"Transfer","inputs":[{"name":"from","type":"address","indexed":true,"internalType":"address"},{"name":"to","type":"address","indexed":true,"internalType":"address"},{"name":"value","type":"uint256","indexed":false,"internalType":"uint256"}],"anonymous":false},{"type":"event","name":"Yield","inputs":[{"name":"user","type":"address","indexed":true,"internalType":"address"},{"name":"amount","type":"uint256","indexed":false,"internalType":"uint256"}],"anonymous":false},{"type":"error","name":"OwnableInvalidOwner","inputs":[{"name":"owner","type":"address","internalType":"address"}]},{"type":"error","name":"OwnableUnauthorizedAccount","inputs":[{"name":"account","type":"address","internalType":"address"}]}],"bytecode":{"object":"0x608060405269d3c21bcecceda100000060045560026006556001600755681b1ae4d6e2ef500000600a5534801561003557600080fd5b50338061005c57604051631e4fbdf760e01b81526000600482015260240160405180910390fd5b610065816100b0565b5061007242610e10610100565b6008556203f48060095568056bc75e2d631000006005556103e8600e5561009a43600a610100565b600b556100a8436032610100565b600c55610127565b600080546001600160a01b038381166001600160a01b0319831681178455604051919092169283917f8be0079c531659141344cd1fd0a4f28419497f9722a3daafe3b4186f6b6457e09190a35050565b8082018082111561012157634e487b7160e01b600052601160045260246000fd5b92915050565b610b21806101366000396000f3fe60806040526004361061010d5760003560e01c80635f96dc1111610095578063993492061161006457806399349206146103a2578063b187bd26146103c2578063d798cbd2146103ec578063f2fde38b14610402578063f8b2cb4f1461042257600080fd5b80635f96dc111461033a578063715018a6146103505780638da5cb5b1461036557806395ddbe891461038d57600080fd5b80633b228b3e116100dc5780633b228b3e146102c25780634ff0876a146102d857806352238fdd146102ee578063596623901461030e5780635d80ca321461032457600080fd5b80630962ef791461022a578063155dd5ee1461024c57806318160ddd1461026c57806327e235e31461029557600080fd5b3661022557600a5434111561015f5760405162461bcd60e51b8152602060048201526013602482015272115e18d959591cc81cdd185ad9481b1a5b5a5d606a1b60448201526064015b60405180910390fd5b336000908152600160205260408120805434929061017e9084906109b8565b92505081905550346005600082825461019791906109b8565b90915550503360008181526002602052604090819020429055517fe1fffcc4923d04b559f4d29a8bfc6cda04eb5b0d3c460751c2402c5c5cc9109c906101e09034815260200190565b60405180910390a27f46074c56f8b8129e3ada6879521255be1596856f97bf16070e5cdd3a10dc1df760055460405161021b91815260200190565b60405180910390a1005b600080fd5b34801561023657600080fd5b5061024a6102453660046109cb565b610458565b005b34801561025857600080fd5b5061024a6102673660046109cb565b61058a565b34801561027857600080fd5b5061028260045481565b6040519081526020015b60405180910390f35b3480156102a157600080fd5b506102826102b03660046109e4565b60016020526000908152604090205481565b3480156102ce57600080fd5b5061028260055481565b3480156102e457600080fd5b5061028260095481565b3480156102fa57600080fd5b506102826103093660046109cb565b610733565b34801561031a57600080fd5b50610282600c5481565b34801561033057600080fd5b50610282600a5481565b34801561034657600080fd5b5061028260085481565b34801561035c57600080fd5b5061024a61077f565b34801561037157600080fd5b506000546040516001600160a01b03909116815260200161028c565b34801561039957600080fd5b50600554610282565b3480156103ae57600080fd5b5061024a6103bd3660046109cb565b610793565b3480156103ce57600080fd5b50600d546103dc9060ff1681565b604051901515815260200161028c565b3480156103f857600080fd5b50610282600b5481565b34801561040e57600080fd5b5061024a61041d3660046109e4565b6108e7565b34801561042e57600080fd5b5061028261043d3660046109e4565b6001600160a01b031660009081526001602052604090205490565b600b54431015801561046c5750600c544311155b6104885760405162461bcd60e51b815260040161015690610a14565b80600a548111156104ab5760405162461bcd60e51b815260040161015690610a43565b336000908152600160205260409020548211156104da5760405162461bcd60e51b815260040161015690610a71565b604051600090339084908381818185875af1925050503d806000811461051c576040519150601f19603f3d011682016040523d82523d6000602084013e610521565b606091505b50509050801561058557336000908152600160205260408120805485929061054a908490610a9f565b909155505060405183815233907f6c26d5cf55429390ad618bed3660c538497dcfd2873e67dbb54ee669be0f08169060200160405180910390a25b505050565b600b54431015801561059e5750600c544311155b6105ba5760405162461bcd60e51b815260040161015690610a14565b80600a548111156105dd5760405162461bcd60e51b815260040161015690610a43565b3360009081526001602052604090205482111561060c5760405162461bcd60e51b815260040161015690610a71565b600061061783610733565b905060006106258285610a9f565b604051909150600090339083908381818185875af1925050503d806000811461066a576040519150601f19603f3d011682016040523d82523d6000602084013e61066f565b606091505b5050905080156106f2573360009081526001602052604081208054879290610698908490610a9f565b9250508190555081600560008282546106b19190610a9f565b9091555050604051828152339030907fddf252ad1be2c89b69c2b068fc378daa952ba7f163c4a11628f55a4df523b3ef9060200160405180910390a361072c565b60405162461bcd60e51b815260206004820152600f60248201526e151c985b9cd9995c8819985a5b1959608a1b6044820152606401610156565b5050505050565b6000606460055460326107469190610ab2565b6107509190610ac9565b82111561075f57506000919050565b60646006548361076f9190610ab2565b6107799190610ac9565b92915050565b610787610925565b6107916000610952565b565b600b5443101580156107a75750600c544311155b6107c35760405162461bcd60e51b815260040161015690610a14565b80600a548111156107e65760405162461bcd60e51b815260040161015690610a43565b336000908152600160205260409020548211156108155760405162461bcd60e51b815260040161015690610a71565b3360009081526001602052604081208054849290610834908490610a9f565b9091555050604051600090339084908381818185875af1925050503d806000811461087b576040519150601f19603f3d011682016040523d82523d6000602084013e610880565b606091505b50509050806105855733600090815260016020526040812080548592906108a89084906109b8565b909155505060405162461bcd60e51b815260206004820152600f60248201526e151c985b9cd9995c8819985a5b1959608a1b6044820152606401610156565b6108ef610925565b6001600160a01b03811661091957604051631e4fbdf760e01b815260006004820152602401610156565b61092281610952565b50565b6000546001600160a01b031633146107915760405163118cdaa760e01b8152336004820152602401610156565b600080546001600160a01b038381166001600160a01b0319831681178455604051919092169283917f8be0079c531659141344cd1fd0a4f28419497f9722a3daafe3b4186f6b6457e09190a35050565b634e487b7160e01b600052601160045260246000fd5b80820180821115610779576107796109a2565b6000602082840312156109dd57600080fd5b5035919050565b6000602082840312156109f657600080fd5b81356001600160a01b0381168114610a0d57600080fd5b9392505050565b602080825260159082015274151c98591a5b99c81dda5b991bddc818db1bdcd959605a1b604082015260600190565b602080825260149082015273105b5bdd5b9d08195e18d959591cc81b1a5b5a5d60621b604082015260600190565b602080825260149082015273496e73756666696369656e742062616c616e636560601b604082015260600190565b81810381811115610779576107796109a2565b8082028115828204841417610779576107796109a2565b600082610ae657634e487b7160e01b600052601260045260246000fd5b50049056fea2646970667358221220655a30c4dbd9befa2bf9f9345c0af6b01cacda9aaeca2fc0194963da84074f2a64736f6c63430008190033","linkReferences":{}},"methodIdentifiers":{"balances(address)":"27e235e3","calculateFees(uint256)":"52238fdd","claimRewards(uint256)":"0962ef79","epochDuration()":"4ff0876a","getBalance(address)":"f8b2cb4f","getLiquidityPool()":"95ddbe89","isPaused()":"b187bd26","maxStakeAmount()":"5d80ca32","owner()":"8da5cb5b","poolLiquidity()":"3b228b3e","poolStartTime()":"5f96dc11","renounceOwnership()":"715018a6","totalSupply()":"18160ddd","tradingEndBlock()":"59662390","tradingStartBlock()":"d798cbd2","transferOwnership(address)":"f2fde38b","withdrawDuringWindow(uint256)":"99349206","withdrawFunds(uint256)":"155dd5ee"},"id":28}